{
  "fileName": "CounterModuleV1.sol",
  "contractName": "CounterModuleV1",
  "source": "// SPDX-License-Identifier: MIT\n\npragma solidity >=0.4.25 <0.7.0;\n\nimport \"./RelayedCallSender.sol\";\n\ncontract CounterModuleV1 is RelayedCallSender {\n    uint256 private _value;\n    address private _sender;\n\n    function increase() public {\n        _value += 1;\n        _sender = _getRelayedCallSender();\n    }\n\n    function getValue() external view returns (uint256) {\n        return _value;\n    }\n\n    function getSender() external view returns (address) {\n        return _sender;\n    }\n}\n",
  "sourcePath": "contracts/test/CounterModuleV1.sol",
  "abi": [
    {
      "inputs": [],
      "name": "getSender",
      "outputs": [
        {
          "internalType": "address",
          "name": "",
          "type": "address"
        }
      ],
      "stateMutability": "view",
      "type": "function"
    },
    {
      "inputs": [],
      "name": "getValue",
      "outputs": [
        {
          "internalType": "uint256",
          "name": "",
          "type": "uint256"
        }
      ],
      "stateMutability": "view",
      "type": "function"
    },
    {
      "inputs": [],
      "name": "increase",
      "outputs": [],
      "stateMutability": "nonpayable",
      "type": "function"
    }
  ],
  "bytecode": "0x608060405234801561001057600080fd5b506101f3806100206000396000f3fe608060405234801561001057600080fd5b50600436106100415760003560e01c806320965255146100465780635e01eb5a14610064578063e8927fbc146100ae575b600080fd5b61004e6100b8565b6040518082815260200191505060405180910390f35b61006c6100c1565b604051808273ffffffffffffffffffffffffffffffffffffffff1673ffffffffffffffffffffffffffffffffffffffff16815260200191505060405180910390f35b6100b66100eb565b005b60008054905090565b6000600160009054906101000a900473ffffffffffffffffffffffffffffffffffffffff16905090565b60016000808282540192505081905550610103610145565b600160006101000a81548173ffffffffffffffffffffffffffffffffffffffff021916908373ffffffffffffffffffffffffffffffffffffffff160217905550565b600060606000368080601f016020809104026020016040519081016040528093929190818152602001838380828437600081840152601f19601f820116905080830192505050505050509050600080369050905073ffffffffffffffffffffffffffffffffffffffff8183015116925082925050509056fea2646970667358221220761d768e22d76b7b961ea9cef229586f54003a2532f3ca48c9e7c0e7e549cec264736f6c634300060b0033",
  "compiler": {
    "name": "solc",
    "version": "0.6.11+commit.5ef660b1.Emscripten.clang",
    "optimizer": {
      "enabled": false,
      "runs": 200
    },
    "evmVersion": "petersburg"
  }
}