{
  "fileName": "GSNRecipientSignature.sol",
  "contractName": "GSNRecipientSignatureUpgradeSafe",
  "source": "pragma solidity ^0.6.0;\n\nimport \"./GSNRecipient.sol\";\nimport \"../cryptography/ECDSA.sol\";\nimport \"../Initializable.sol\";\n\n/**\n * @dev A xref:ROOT:gsn-strategies.adoc#gsn-strategies[GSN strategy] that allows relayed transactions through when they are\n * accompanied by the signature of a trusted signer. The intent is for this signature to be generated by a server that\n * performs validations off-chain. Note that nothing is charged to the user in this scheme. Thus, the server should make\n * sure to account for this in their economic and threat model.\n */\ncontract GSNRecipientSignatureUpgradeSafe is Initializable, GSNRecipientUpgradeSafe {\n    using ECDSA for bytes32;\n\n    address private _trustedSigner;\n\n    enum GSNRecipientSignatureErrorCodes {\n        INVALID_SIGNER\n    }\n\n    /**\n     * @dev Sets the trusted signer that is going to be producing signatures to approve relayed calls.\n     */\n\n    function __GSNRecipientSignature_init(address trustedSigner) internal initializer {\n        __Context_init_unchained();\n        __GSNRecipient_init_unchained();\n        __GSNRecipientSignature_init_unchained(trustedSigner);\n    }\n\n    function __GSNRecipientSignature_init_unchained(address trustedSigner) internal initializer {\n\n\n        require(trustedSigner != address(0), \"GSNRecipientSignature: trusted signer is the zero address\");\n        _trustedSigner = trustedSigner;\n\n    }\n\n\n    /**\n     * @dev Ensures that only transactions with a trusted signature can be relayed through the GSN.\n     */\n    function acceptRelayedCall(\n        address relay,\n        address from,\n        bytes memory encodedFunction,\n        uint256 transactionFee,\n        uint256 gasPrice,\n        uint256 gasLimit,\n        uint256 nonce,\n        bytes memory approvalData,\n        uint256\n    )\n        public\n        view\n        virtual\n        override\n        returns (uint256, bytes memory)\n    {\n        bytes memory blob = abi.encodePacked(\n            relay,\n            from,\n            encodedFunction,\n            transactionFee,\n            gasPrice,\n            gasLimit,\n            nonce, // Prevents replays on RelayHub\n            getHubAddr(), // Prevents replays in multiple RelayHubs\n            address(this) // Prevents replays in multiple recipients\n        );\n        if (keccak256(blob).toEthSignedMessageHash().recover(approvalData) == _trustedSigner) {\n            return _approveRelayedCall();\n        } else {\n            return _rejectRelayedCall(uint256(GSNRecipientSignatureErrorCodes.INVALID_SIGNER));\n        }\n    }\n\n    function _preRelayedCall(bytes memory) internal virtual override returns (bytes32) { }\n\n    function _postRelayedCall(bytes memory, bool, uint256, bytes32) internal virtual override { }\n\n    uint256[49] private __gap;\n}\n",
  "sourcePath": "@openzeppelin/contracts-ethereum-package/contracts/GSN/GSNRecipientSignature.sol",
  "abi": [
    {
      "anonymous": false,
      "inputs": [
        {
          "indexed": true,
          "internalType": "address",
          "name": "oldRelayHub",
          "type": "address"
        },
        {
          "indexed": true,
          "internalType": "address",
          "name": "newRelayHub",
          "type": "address"
        }
      ],
      "name": "RelayHubChanged",
      "type": "event"
    },
    {
      "inputs": [
        {
          "internalType": "address",
          "name": "relay",
          "type": "address"
        },
        {
          "internalType": "address",
          "name": "from",
          "type": "address"
        },
        {
          "internalType": "bytes",
          "name": "encodedFunction",
          "type": "bytes"
        },
        {
          "internalType": "uint256",
          "name": "transactionFee",
          "type": "uint256"
        },
        {
          "internalType": "uint256",
          "name": "gasPrice",
          "type": "uint256"
        },
        {
          "internalType": "uint256",
          "name": "gasLimit",
          "type": "uint256"
        },
        {
          "internalType": "uint256",
          "name": "nonce",
          "type": "uint256"
        },
        {
          "internalType": "bytes",
          "name": "approvalData",
          "type": "bytes"
        },
        {
          "internalType": "uint256",
          "name": "",
          "type": "uint256"
        }
      ],
      "name": "acceptRelayedCall",
      "outputs": [
        {
          "internalType": "uint256",
          "name": "",
          "type": "uint256"
        },
        {
          "internalType": "bytes",
          "name": "",
          "type": "bytes"
        }
      ],
      "stateMutability": "view",
      "type": "function"
    },
    {
      "inputs": [],
      "name": "getHubAddr",
      "outputs": [
        {
          "internalType": "address",
          "name": "",
          "type": "address"
        }
      ],
      "stateMutability": "view",
      "type": "function"
    },
    {
      "inputs": [
        {
          "internalType": "bytes",
          "name": "context",
          "type": "bytes"
        },
        {
          "internalType": "bool",
          "name": "success",
          "type": "bool"
        },
        {
          "internalType": "uint256",
          "name": "actualCharge",
          "type": "uint256"
        },
        {
          "internalType": "bytes32",
          "name": "preRetVal",
          "type": "bytes32"
        }
      ],
      "name": "postRelayedCall",
      "outputs": [],
      "stateMutability": "nonpayable",
      "type": "function"
    },
    {
      "inputs": [
        {
          "internalType": "bytes",
          "name": "context",
          "type": "bytes"
        }
      ],
      "name": "preRelayedCall",
      "outputs": [
        {
          "internalType": "bytes32",
          "name": "",
          "type": "bytes32"
        }
      ],
      "stateMutability": "nonpayable",
      "type": "function"
    },
    {
      "inputs": [],
      "name": "relayHubVersion",
      "outputs": [
        {
          "internalType": "string",
          "name": "",
          "type": "string"
        }
      ],
      "stateMutability": "view",
      "type": "function"
    }
  ],
  "bytecode": "0x608060405234801561001057600080fd5b50610cd2806100206000396000f3fe608060405234801561001057600080fd5b50600436106100575760003560e01c806374e861d61461005c57806380274db7146100a657806383947ea014610175578063ad61ccd5146103ba578063e06e0e221461043d575b600080fd5b610064610518565b604051808273ffffffffffffffffffffffffffffffffffffffff1673ffffffffffffffffffffffffffffffffffffffff16815260200191505060405180910390f35b61015f600480360360208110156100bc57600080fd5b81019080803590602001906401000000008111156100d957600080fd5b8201836020820111156100eb57600080fd5b8035906020019184600183028401116401000000008311171561010d57600080fd5b91908080601f016020809104026020016040519081016040528093929190818152602001838380828437600081840152601f19601f820116905080830192505050505050509192919290505050610542565b6040518082815260200191505060405180910390f35b610338600480360361012081101561018c57600080fd5b81019080803573ffffffffffffffffffffffffffffffffffffffff169060200190929190803573ffffffffffffffffffffffffffffffffffffffff169060200190929190803590602001906401000000008111156101e957600080fd5b8201836020820111156101fb57600080fd5b8035906020019184600183028401116401000000008311171561021d57600080fd5b91908080601f016020809104026020016040519081016040528093929190818152602001838380828437600081840152601f19601f82011690508083019250505050505050919291929080359060200190929190803590602001909291908035906020019092919080359060200190929190803590602001906401000000008111156102a857600080fd5b8201836020820111156102ba57600080fd5b803590602001918460018302840111640100000000831117156102dc57600080fd5b91908080601f016020809104026020016040519081016040528093929190818152602001838380828437600081840152601f19601f820116905080830192505050505050509192919290803590602001909291905050506105df565b6040518083815260200180602001828103825283818151815260200191508051906020019080838360005b8381101561037e578082015181840152602081019050610363565b50505050905090810190601f1680156103ab5780820380516001836020036101000a031916815260200191505b50935050505060405180910390f35b6103c2610805565b6040518080602001828103825283818151815260200191508051906020019080838360005b838110156104025780820151818401526020810190506103e7565b50505050905090810190601f16801561042f5780820380516001836020036101000a031916815260200191505b509250505060405180910390f35b6105166004803603608081101561045357600080fd5b810190808035906020019064010000000081111561047057600080fd5b82018360208201111561048257600080fd5b803590602001918460018302840111640100000000831117156104a457600080fd5b91908080601f016020809104026020016040519081016040528093929190818152602001838380828437600081840152601f19601f8201169050808301925050505050505091929192908035151590602001909291908035906020019092919080359060200190929190505050610842565b005b6000606560009054906101000a900473ffffffffffffffffffffffffffffffffffffffff16905090565b600061054c610518565b73ffffffffffffffffffffffffffffffffffffffff163373ffffffffffffffffffffffffffffffffffffffff16146105cf576040517f08c379a0000000000000000000000000000000000000000000000000000000008152600401808060200182810382526024815260200180610c796024913960400191505060405180910390fd5b6105d8826108df565b9050919050565b60006060808b8b8b8b8b8b8b6105f3610518565b30604051602001808a73ffffffffffffffffffffffffffffffffffffffff1673ffffffffffffffffffffffffffffffffffffffff1660601b81526014018973ffffffffffffffffffffffffffffffffffffffff1673ffffffffffffffffffffffffffffffffffffffff1660601b815260140188805190602001908083835b602083106106945780518252602082019150602081019050602083039250610671565b6001836020036101000a0380198251168184511680821785525050505050509050018781526020018681526020018581526020018481526020018373ffffffffffffffffffffffffffffffffffffffff1673ffffffffffffffffffffffffffffffffffffffff1660601b81526014018273ffffffffffffffffffffffffffffffffffffffff1673ffffffffffffffffffffffffffffffffffffffff1660601b815260140199505050505050505050506040516020818303038152906040529050609760009054906101000a900473ffffffffffffffffffffffffffffffffffffffff1673ffffffffffffffffffffffffffffffffffffffff166107af866107a184805190602001206108e6565b61093e90919063ffffffff16565b73ffffffffffffffffffffffffffffffffffffffff1614156107dd576107d3610bd9565b92509250506107f7565b6107f16000808111156107ec57fe5b610bfd565b92509250505b995099975050505050505050565b60606040518060400160405280600581526020017f312e302e30000000000000000000000000000000000000000000000000000000815250905090565b61084a610518565b73ffffffffffffffffffffffffffffffffffffffff163373ffffffffffffffffffffffffffffffffffffffff16146108cd576040517f08c379a0000000000000000000000000000000000000000000000000000000008152600401808060200182810382526024815260200180610c796024913960400191505060405180910390fd5b6108d984848484610c1e565b50505050565b6000919050565b60008160405160200180807f19457468657265756d205369676e6564204d6573736167653a0a333200000000815250601c01828152602001915050604051602081830303815290604052805190602001209050919050565b600060418251146109b7576040517f08c379a000000000000000000000000000000000000000000000000000000000815260040180806020018281038252601f8152602001807f45434453413a20696e76616c6964207369676e6174757265206c656e6774680081525060200191505060405180910390fd5b60008060006020850151925060408501519150606085015160001a90507f7fffffffffffffffffffffffffffffff5d576e7357a4501ddfe92f46681b20a08260001c1115610a50576040517f08c379a0000000000000000000000000000000000000000000000000000000008152600401808060200182810382526022815260200180610c356022913960400191505060405180910390fd5b601b8160ff1614158015610a685750601c8160ff1614155b15610abe576040517f08c379a0000000000000000000000000000000000000000000000000000000008152600401808060200182810382526022815260200180610c576022913960400191505060405180910390fd5b600060018783868660405160008152602001604052604051808581526020018460ff1660ff1681526020018381526020018281526020019450505050506020604051602081039080840390855afa158015610b1d573d6000803e3d6000fd5b505050602060405103519050600073ffffffffffffffffffffffffffffffffffffffff168173ffffffffffffffffffffffffffffffffffffffff161415610bcc576040517f08c379a00000000000000000000000000000000000000000000000000000000081526004018080602001828103825260188152602001807f45434453413a20696e76616c6964207369676e6174757265000000000000000081525060200191505060405180910390fd5b8094505050505092915050565b60006060610bf560405180602001604052806000815250610c24565b915091509091565b6000606082600b016040518060200160405280600081525091509150915091565b50505050565b600060606000839150915091509156fe45434453413a20696e76616c6964207369676e6174757265202773272076616c756545434453413a20696e76616c6964207369676e6174757265202776272076616c756547534e526563697069656e743a2063616c6c6572206973206e6f742052656c6179487562a26469706673582212209c0b03157d086f28cfb2493fb7eb2afe95a4c293592591f5b8fbb4960f8fcc5564736f6c634300060b0033",
  "compiler": {
    "name": "solc",
    "version": "0.6.11+commit.5ef660b1.Emscripten.clang",
    "optimizer": {
      "enabled": false,
      "runs": 200
    },
    "evmVersion": "petersburg"
  }
}