{
  "fileName": "GSNV1Adapter.sol",
  "contractName": "GSNV1Adapter",
  "source": "// SPDX-License-Identifier: MIT\n\npragma solidity >=0.4.25 <0.7.0;\n\nimport \"@openzeppelin/contracts-ethereum-package/contracts/GSN/GSNRecipientSignature.sol\";\nimport \"@openzeppelin/contracts-ethereum-package/contracts/access/AccessControl.sol\";\n\n/**\n * @title GSNV1Adapter\n * @dev Implements delegation of calls to other\n * contracts via GSN, with proper forwarding of\n * return values and bubbling of failures.\n *\n * All functions in this implementation have a\n * `0xb373a41f` postfix, that prevents names from intersecting\n * with the target contract.\n *\n * @notice 0xb373a41f == bytes4(keccak256(bytes(\"GSNV1Adapter\")))\n */\ncontract GSNV1Adapter is\n    GSNRecipientSignatureUpgradeSafe,\n    AccessControlUpgradeSafe\n{\n    bytes32 private constant MANAGER_ROLE = keccak256(\"MANAGER_ROLE\");\n\n    modifier onlyManager() {\n        require(hasRole(MANAGER_ROLE, _msgSender()), \"Caller is not a manager\");\n        _;\n    }\n\n    struct Target {\n        string targetName;\n        address targetAddress;\n    }\n\n    mapping(bytes => Target) private _targets;\n\n    /**\n     * @dev Sets the values for {trustedSigner} and {admin}.\n     *\n     * All two of these values are immutable: they can only be set once during\n     * initialization.\n     *\n     * @param trustedSigner Address of the trusted signer.\n     *\n     * @param admin Address of the admin.\n     */\n    function initilize__0xb373a41f(address trustedSigner, address admin)\n        public\n        initializer\n    {\n        _setupRole(DEFAULT_ADMIN_ROLE, admin);\n        _setupRole(MANAGER_ROLE, admin);\n        __GSNRecipientSignature_init(trustedSigner);\n    }\n\n    fallback() external payable {\n        _delegate();\n    }\n\n    // solhint-disable-next-line no-empty-blocks\n    receive() external payable {}\n\n    /**\n     * @dev Returns hash of the manager role.\n     */\n    function getManagerRole__0xb373a41f() external pure returns (bytes32) {\n        return MANAGER_ROLE;\n    }\n\n    /**\n     * @dev Returns name of the target.\n     *\n     * @param encodedFunction First 4 bytes of the function hash.\n     *\n     * @return String name of the target.\n     */\n    function getTargetName__0xb373a41f(bytes memory encodedFunction)\n        external\n        view\n        returns (string memory)\n    {\n        return _targets[encodedFunction].targetName;\n    }\n\n    /**\n     * @dev Returns address of the target.\n     *\n     * @param encodedFunction First 4 bytes of the function hash.\n     *\n     * @return Address of the target.\n     */\n    function getTargetAddress__0xb373a41f(bytes memory encodedFunction)\n        external\n        view\n        returns (address)\n    {\n        return _targets[encodedFunction].targetAddress;\n    }\n\n    /**\n     * @dev Sets target struct in mapping.\n     *\n     * Returns a boolean value indicating whether the operation succeeded.\n     *\n     * @param encodedFunction First 4 bytes of the function hash.\n     *\n     * @param targetName String name of the target.\n     *\n     * @param targetAddress Address of the target.\n     *\n     * @return Boolean value indicating whether the operation succeeded.\n     */\n    function setTarget__0xb373a41f(\n        bytes memory encodedFunction,\n        string memory targetName,\n        address targetAddress\n    ) external onlyManager returns (bool) {\n        _targets[encodedFunction] = Target({\n            targetName: targetName,\n            targetAddress: targetAddress\n        });\n        return true;\n    }\n\n    /**\n     * @dev See {IRelayHub-depositFor}.\n     * https://github.com/OpenZeppelin/openzeppelin-contracts-ethereum-package\n     *\n     * @return Boolean value indicating whether the operation succeeded.\n     */\n    function deposit__0xb373a41f() external payable returns (bool) {\n        IRelayHub(getHubAddr()).depositFor{ value: msg.value }(address(this));\n        return true;\n    }\n\n    /**\n     * @dev Withdraws the recipient's deposits in `RelayHub`.\n     *\n     * @param amount The amount of eth that is transferred to the recipient's address.\n     *\n     * @param payee Recipient address.\n     *\n     * @return Boolean value indicating whether the operation succeeded.\n     */\n    function withdraw__0xb373a41f(uint256 amount, address payable payee)\n        external\n        onlyManager\n        returns (bool)\n    {\n        _withdrawDeposits(amount, payee);\n        return true;\n    }\n\n    function _preRelayedCall(bytes memory context)\n        internal\n        override\n        returns (bytes32)\n    {\n        (context);\n    }\n\n    function _postRelayedCall(\n        bytes memory context,\n        bool,\n        uint256 actualCharge,\n        bytes32\n    ) internal override {\n        (context, actualCharge);\n    }\n\n    function _msgSender()\n        internal\n        virtual\n        override(ContextUpgradeSafe, GSNRecipientUpgradeSafe)\n        view\n        returns (address payable)\n    {\n        return GSNRecipientUpgradeSafe._msgSender();\n    }\n\n    function _msgData()\n        internal\n        virtual\n        override(ContextUpgradeSafe, GSNRecipientUpgradeSafe)\n        view\n        returns (bytes memory)\n    {\n        if (msg.sender != getHubAddr()) {\n            return\n                abi.encodePacked(\n                    GSNRecipientUpgradeSafe._msgData(),\n                    _msgSender()\n                );\n        } else {\n            return ContextUpgradeSafe._msgData();\n        }\n    }\n\n    function _encodedFunctionName() private view returns (bytes memory) {\n        bytes memory actualData = new bytes(4);\n\n        for (uint256 i = 0; i < 4; ++i) {\n            actualData[i] = _msgData()[i];\n        }\n\n        return actualData;\n    }\n\n    function _delegate() private returns (bool, bytes memory) {\n        return\n            _targets[_encodedFunctionName()].targetAddress.call{\n                value: msg.value\n            }(_msgData());\n    }\n}\n",
  "sourcePath": "contracts/GSNV1Adapter.sol",
  "abi": [
    {
      "anonymous": false,
      "inputs": [
        {
          "indexed": true,
          "internalType": "address",
          "name": "oldRelayHub",
          "type": "address"
        },
        {
          "indexed": true,
          "internalType": "address",
          "name": "newRelayHub",
          "type": "address"
        }
      ],
      "name": "RelayHubChanged",
      "type": "event"
    },
    {
      "anonymous": false,
      "inputs": [
        {
          "indexed": true,
          "internalType": "bytes32",
          "name": "role",
          "type": "bytes32"
        },
        {
          "indexed": true,
          "internalType": "address",
          "name": "account",
          "type": "address"
        },
        {
          "indexed": true,
          "internalType": "address",
          "name": "sender",
          "type": "address"
        }
      ],
      "name": "RoleGranted",
      "type": "event"
    },
    {
      "anonymous": false,
      "inputs": [
        {
          "indexed": true,
          "internalType": "bytes32",
          "name": "role",
          "type": "bytes32"
        },
        {
          "indexed": true,
          "internalType": "address",
          "name": "account",
          "type": "address"
        },
        {
          "indexed": true,
          "internalType": "address",
          "name": "sender",
          "type": "address"
        }
      ],
      "name": "RoleRevoked",
      "type": "event"
    },
    {
      "stateMutability": "payable",
      "type": "fallback"
    },
    {
      "inputs": [],
      "name": "DEFAULT_ADMIN_ROLE",
      "outputs": [
        {
          "internalType": "bytes32",
          "name": "",
          "type": "bytes32"
        }
      ],
      "stateMutability": "view",
      "type": "function"
    },
    {
      "inputs": [
        {
          "internalType": "address",
          "name": "relay",
          "type": "address"
        },
        {
          "internalType": "address",
          "name": "from",
          "type": "address"
        },
        {
          "internalType": "bytes",
          "name": "encodedFunction",
          "type": "bytes"
        },
        {
          "internalType": "uint256",
          "name": "transactionFee",
          "type": "uint256"
        },
        {
          "internalType": "uint256",
          "name": "gasPrice",
          "type": "uint256"
        },
        {
          "internalType": "uint256",
          "name": "gasLimit",
          "type": "uint256"
        },
        {
          "internalType": "uint256",
          "name": "nonce",
          "type": "uint256"
        },
        {
          "internalType": "bytes",
          "name": "approvalData",
          "type": "bytes"
        },
        {
          "internalType": "uint256",
          "name": "",
          "type": "uint256"
        }
      ],
      "name": "acceptRelayedCall",
      "outputs": [
        {
          "internalType": "uint256",
          "name": "",
          "type": "uint256"
        },
        {
          "internalType": "bytes",
          "name": "",
          "type": "bytes"
        }
      ],
      "stateMutability": "view",
      "type": "function"
    },
    {
      "inputs": [],
      "name": "deposit__0xb373a41f",
      "outputs": [
        {
          "internalType": "bool",
          "name": "",
          "type": "bool"
        }
      ],
      "stateMutability": "payable",
      "type": "function"
    },
    {
      "inputs": [],
      "name": "getHubAddr",
      "outputs": [
        {
          "internalType": "address",
          "name": "",
          "type": "address"
        }
      ],
      "stateMutability": "view",
      "type": "function"
    },
    {
      "inputs": [],
      "name": "getManagerRole__0xb373a41f",
      "outputs": [
        {
          "internalType": "bytes32",
          "name": "",
          "type": "bytes32"
        }
      ],
      "stateMutability": "pure",
      "type": "function"
    },
    {
      "inputs": [
        {
          "internalType": "bytes32",
          "name": "role",
          "type": "bytes32"
        }
      ],
      "name": "getRoleAdmin",
      "outputs": [
        {
          "internalType": "bytes32",
          "name": "",
          "type": "bytes32"
        }
      ],
      "stateMutability": "view",
      "type": "function"
    },
    {
      "inputs": [
        {
          "internalType": "bytes32",
          "name": "role",
          "type": "bytes32"
        },
        {
          "internalType": "uint256",
          "name": "index",
          "type": "uint256"
        }
      ],
      "name": "getRoleMember",
      "outputs": [
        {
          "internalType": "address",
          "name": "",
          "type": "address"
        }
      ],
      "stateMutability": "view",
      "type": "function"
    },
    {
      "inputs": [
        {
          "internalType": "bytes32",
          "name": "role",
          "type": "bytes32"
        }
      ],
      "name": "getRoleMemberCount",
      "outputs": [
        {
          "internalType": "uint256",
          "name": "",
          "type": "uint256"
        }
      ],
      "stateMutability": "view",
      "type": "function"
    },
    {
      "inputs": [
        {
          "internalType": "bytes",
          "name": "encodedFunction",
          "type": "bytes"
        }
      ],
      "name": "getTargetAddress__0xb373a41f",
      "outputs": [
        {
          "internalType": "address",
          "name": "",
          "type": "address"
        }
      ],
      "stateMutability": "view",
      "type": "function"
    },
    {
      "inputs": [
        {
          "internalType": "bytes",
          "name": "encodedFunction",
          "type": "bytes"
        }
      ],
      "name": "getTargetName__0xb373a41f",
      "outputs": [
        {
          "internalType": "string",
          "name": "",
          "type": "string"
        }
      ],
      "stateMutability": "view",
      "type": "function"
    },
    {
      "inputs": [
        {
          "internalType": "bytes32",
          "name": "role",
          "type": "bytes32"
        },
        {
          "internalType": "address",
          "name": "account",
          "type": "address"
        }
      ],
      "name": "grantRole",
      "outputs": [],
      "stateMutability": "nonpayable",
      "type": "function"
    },
    {
      "inputs": [
        {
          "internalType": "bytes32",
          "name": "role",
          "type": "bytes32"
        },
        {
          "internalType": "address",
          "name": "account",
          "type": "address"
        }
      ],
      "name": "hasRole",
      "outputs": [
        {
          "internalType": "bool",
          "name": "",
          "type": "bool"
        }
      ],
      "stateMutability": "view",
      "type": "function"
    },
    {
      "inputs": [
        {
          "internalType": "address",
          "name": "trustedSigner",
          "type": "address"
        },
        {
          "internalType": "address",
          "name": "admin",
          "type": "address"
        }
      ],
      "name": "initilize__0xb373a41f",
      "outputs": [],
      "stateMutability": "nonpayable",
      "type": "function"
    },
    {
      "inputs": [
        {
          "internalType": "bytes",
          "name": "context",
          "type": "bytes"
        },
        {
          "internalType": "bool",
          "name": "success",
          "type": "bool"
        },
        {
          "internalType": "uint256",
          "name": "actualCharge",
          "type": "uint256"
        },
        {
          "internalType": "bytes32",
          "name": "preRetVal",
          "type": "bytes32"
        }
      ],
      "name": "postRelayedCall",
      "outputs": [],
      "stateMutability": "nonpayable",
      "type": "function"
    },
    {
      "inputs": [
        {
          "internalType": "bytes",
          "name": "context",
          "type": "bytes"
        }
      ],
      "name": "preRelayedCall",
      "outputs": [
        {
          "internalType": "bytes32",
          "name": "",
          "type": "bytes32"
        }
      ],
      "stateMutability": "nonpayable",
      "type": "function"
    },
    {
      "inputs": [],
      "name": "relayHubVersion",
      "outputs": [
        {
          "internalType": "string",
          "name": "",
          "type": "string"
        }
      ],
      "stateMutability": "view",
      "type": "function"
    },
    {
      "inputs": [
        {
          "internalType": "bytes32",
          "name": "role",
          "type": "bytes32"
        },
        {
          "internalType": "address",
          "name": "account",
          "type": "address"
        }
      ],
      "name": "renounceRole",
      "outputs": [],
      "stateMutability": "nonpayable",
      "type": "function"
    },
    {
      "inputs": [
        {
          "internalType": "bytes32",
          "name": "role",
          "type": "bytes32"
        },
        {
          "internalType": "address",
          "name": "account",
          "type": "address"
        }
      ],
      "name": "revokeRole",
      "outputs": [],
      "stateMutability": "nonpayable",
      "type": "function"
    },
    {
      "inputs": [
        {
          "internalType": "bytes",
          "name": "encodedFunction",
          "type": "bytes"
        },
        {
          "internalType": "string",
          "name": "targetName",
          "type": "string"
        },
        {
          "internalType": "address",
          "name": "targetAddress",
          "type": "address"
        }
      ],
      "name": "setTarget__0xb373a41f",
      "outputs": [
        {
          "internalType": "bool",
          "name": "",
          "type": "bool"
        }
      ],
      "stateMutability": "nonpayable",
      "type": "function"
    },
    {
      "inputs": [
        {
          "internalType": "uint256",
          "name": "amount",
          "type": "uint256"
        },
        {
          "internalType": "address payable",
          "name": "payee",
          "type": "address"
        }
      ],
      "name": "withdraw__0xb373a41f",
      "outputs": [
        {
          "internalType": "bool",
          "name": "",
          "type": "bool"
        }
      ],
      "stateMutability": "nonpayable",
      "type": "function"
    },
    {
      "stateMutability": "payable",
      "type": "receive"
    }
  ],
  "bytecode": "0x608060405234801561001057600080fd5b50613055806100206000396000f3fe6080604052600436106101235760003560e01c806391d14854116100a0578063ca15c87311610064578063ca15c87314610b5a578063d547741f14610ba9578063e06e0e2214610c04578063e55bef2b14610cec578063fb4b16ff14610d0e5761012a565b806391d148541461087a5780639332499a146108ed5780639b0f817e1461095e578063a217fddf14610a9f578063ad61ccd514610aca5761012a565b806355a3e016116100e757806355a3e0161461044557806374e861d61461047057806380274db7146104c757806383947ea0146105a35780639010d07c146107f55761012a565b8063248a9ca3146101365780632f2ff15d1461018557806336568abe146101e05780633abf82411461023b5780633e125d6b146102ae5761012a565b3661012a57005b610132610e16565b5050005b34801561014257600080fd5b5061016f6004803603602081101561015957600080fd5b8101908080359060200190929190505050610f70565b6040518082815260200191505060405180910390f35b34801561019157600080fd5b506101de600480360360408110156101a857600080fd5b8101908080359060200190929190803573ffffffffffffffffffffffffffffffffffffffff169060200190929190505050610f90565b005b3480156101ec57600080fd5b506102396004803603604081101561020357600080fd5b8101908080359060200190929190803573ffffffffffffffffffffffffffffffffffffffff16906020019092919050505061101a565b005b34801561024757600080fd5b506102946004803603604081101561025e57600080fd5b8101908080359060200190929190803573ffffffffffffffffffffffffffffffffffffffff1690602001909291905050506110b3565b604051808215151515815260200191505060405180910390f35b3480156102ba57600080fd5b5061042b600480360360608110156102d157600080fd5b81019080803590602001906401000000008111156102ee57600080fd5b82018360208201111561030057600080fd5b8035906020019184600183028401116401000000008311171561032257600080fd5b91908080601f016020809104026020016040519081016040528093929190818152602001838380828437600081840152601f19601f8201169050808301925050505050505091929192908035906020019064010000000081111561038557600080fd5b82018360208201111561039757600080fd5b803590602001918460018302840111640100000000831117156103b957600080fd5b91908080601f016020809104026020016040519081016040528093929190818152602001838380828437600081840152601f19601f820116905080830192505050505050509192919290803573ffffffffffffffffffffffffffffffffffffffff169060200190929190505050611181565b604051808215151515815260200191505060405180910390f35b34801561045157600080fd5b5061045a611341565b6040518082815260200191505060405180910390f35b34801561047c57600080fd5b5061048561137e565b604051808273ffffffffffffffffffffffffffffffffffffffff1673ffffffffffffffffffffffffffffffffffffffff16815260200191505060405180910390f35b3480156104d357600080fd5b5061058d600480360360208110156104ea57600080fd5b810190808035906020019064010000000081111561050757600080fd5b82018360208201111561051957600080fd5b8035906020019184600183028401116401000000008311171561053b57600080fd5b91908080601f016020809104026020016040519081016040528093929190818152602001838380828437600081840152601f19601f8201169050808301925050505050505091929192905050506113a8565b6040518082815260200191505060405180910390f35b3480156105af57600080fd5b5061077360048036036101208110156105c757600080fd5b81019080803573ffffffffffffffffffffffffffffffffffffffff169060200190929190803573ffffffffffffffffffffffffffffffffffffffff1690602001909291908035906020019064010000000081111561062457600080fd5b82018360208201111561063657600080fd5b8035906020019184600183028401116401000000008311171561065857600080fd5b91908080601f016020809104026020016040519081016040528093929190818152602001838380828437600081840152601f19601f82011690508083019250505050505050919291929080359060200190929190803590602001909291908035906020019092919080359060200190929190803590602001906401000000008111156106e357600080fd5b8201836020820111156106f557600080fd5b8035906020019184600183028401116401000000008311171561071757600080fd5b91908080601f016020809104026020016040519081016040528093929190818152602001838380828437600081840152601f19601f82011690508083019250505050505050919291929080359060200190929190505050611445565b6040518083815260200180602001828103825283818151815260200191508051906020019080838360005b838110156107b957808201518184015260208101905061079e565b50505050905090810190601f1680156107e65780820380516001836020036101000a031916815260200191505b50935050505060405180910390f35b34801561080157600080fd5b506108386004803603604081101561081857600080fd5b81019080803590602001909291908035906020019092919050505061166b565b604051808273ffffffffffffffffffffffffffffffffffffffff1673ffffffffffffffffffffffffffffffffffffffff16815260200191505060405180910390f35b34801561088657600080fd5b506108d36004803603604081101561089d57600080fd5b8101908080359060200190929190803573ffffffffffffffffffffffffffffffffffffffff16906020019092919050505061169d565b604051808215151515815260200191505060405180910390f35b3480156108f957600080fd5b5061095c6004803603604081101561091057600080fd5b81019080803573ffffffffffffffffffffffffffffffffffffffff169060200190929190803573ffffffffffffffffffffffffffffffffffffffff1690602001909291905050506116cf565b005b34801561096a57600080fd5b50610a246004803603602081101561098157600080fd5b810190808035906020019064010000000081111561099e57600080fd5b8201836020820111156109b057600080fd5b803590602001918460018302840111640100000000831117156109d257600080fd5b91908080601f016020809104026020016040519081016040528093929190818152602001838380828437600081840152601f19601f820116905080830192505050505050509192919290505050611825565b6040518080602001828103825283818151815260200191508051906020019080838360005b83811015610a64578082015181840152602081019050610a49565b50505050905090810190601f168015610a915780820380516001836020036101000a031916815260200191505b509250505060405180910390f35b348015610aab57600080fd5b50610ab4611933565b6040518082815260200191505060405180910390f35b348015610ad657600080fd5b50610adf61193a565b6040518080602001828103825283818151815260200191508051906020019080838360005b83811015610b1f578082015181840152602081019050610b04565b50505050905090810190601f168015610b4c5780820380516001836020036101000a031916815260200191505b509250505060405180910390f35b348015610b6657600080fd5b50610b9360048036036020811015610b7d57600080fd5b8101908080359060200190929190505050611977565b6040518082815260200191505060405180910390f35b348015610bb557600080fd5b50610c0260048036036040811015610bcc57600080fd5b8101908080359060200190929190803573ffffffffffffffffffffffffffffffffffffffff16906020019092919050505061199e565b005b348015610c1057600080fd5b50610cea60048036036080811015610c2757600080fd5b8101908080359060200190640100000000811115610c4457600080fd5b820183602082011115610c5657600080fd5b80359060200191846001830284011164010000000083111715610c7857600080fd5b91908080601f016020809104026020016040519081016040528093929190818152602001838380828437600081840152601f19601f8201169050808301925050505050505091929192908035151590602001909291908035906020019092919080359060200190929190505050611a28565b005b610cf4611ac5565b604051808215151515815260200191505060405180910390f35b348015610d1a57600080fd5b50610dd460048036036020811015610d3157600080fd5b8101908080359060200190640100000000811115610d4e57600080fd5b820183602082011115610d6057600080fd5b80359060200191846001830284011164010000000083111715610d8257600080fd5b91908080601f016020809104026020016040519081016040528093929190818152602001838380828437600081840152601f19601f820116905080830192505050505050509192919290505050611b6d565b604051808273ffffffffffffffffffffffffffffffffffffffff1673ffffffffffffffffffffffffffffffffffffffff16815260200191505060405180910390f35b6000606060fb610e24611c03565b6040518082805190602001908083835b60208310610e575780518252602082019150602081019050602083039250610e34565b6001836020036101000a038019825116818451168082178552505050505050905001915050908152602001604051809103902060010160009054906101000a900473ffffffffffffffffffffffffffffffffffffffff1673ffffffffffffffffffffffffffffffffffffffff1634610ecd611ccf565b6040518082805190602001908083835b60208310610f005780518252602082019150602081019050602083039250610edd565b6001836020036101000a03801982511681845116808217855250505050505090500191505060006040518083038185875af1925050503d8060008114610f62576040519150601f19603f3d011682016040523d82523d6000602084013e610f67565b606091505b50915091509091565b600060c96000838152602001908152602001600020600201549050919050565b610fb760c9600084815260200190815260200160002060020154610fb2611dd0565b61169d565b61100c576040517f08c379a000000000000000000000000000000000000000000000000000000000815260040180806020018281038252602f815260200180612ec3602f913960400191505060405180910390fd5b6110168282611ddf565b5050565b611022611dd0565b73ffffffffffffffffffffffffffffffffffffffff168173ffffffffffffffffffffffffffffffffffffffff16146110a5576040517f08c379a000000000000000000000000000000000000000000000000000000000815260040180806020018281038252602f815260200180612ff1602f913960400191505060405180910390fd5b6110af8282611e73565b5050565b60006110fb60405180807f4d414e414745525f524f4c450000000000000000000000000000000000000000815250600c01905060405180910390206110f6611dd0565b61169d565b61116d576040517f08c379a00000000000000000000000000000000000000000000000000000000081526004018080602001828103825260178152602001807f43616c6c6572206973206e6f742061206d616e6167657200000000000000000081525060200191505060405180910390fd5b6111778383611f07565b6001905092915050565b60006111c960405180807f4d414e414745525f524f4c450000000000000000000000000000000000000000815250600c01905060405180910390206111c4611dd0565b61169d565b61123b576040517f08c379a00000000000000000000000000000000000000000000000000000000081526004018080602001828103825260178152602001807f43616c6c6572206973206e6f742061206d616e6167657200000000000000000081525060200191505060405180910390fd5b60405180604001604052808481526020018373ffffffffffffffffffffffffffffffffffffffff1681525060fb856040518082805190602001908083835b6020831061129c5780518252602082019150602081019050602083039250611279565b6001836020036101000a038019825116818451168082178552505050505050905001915050908152602001604051809103902060008201518160000190805190602001906112eb929190612dfb565b5060208201518160010160006101000a81548173ffffffffffffffffffffffffffffffffffffffff021916908373ffffffffffffffffffffffffffffffffffffffff160217905550905050600190509392505050565b600060405180807f4d414e414745525f524f4c450000000000000000000000000000000000000000815250600c0190506040518091039020905090565b6000606560009054906101000a900473ffffffffffffffffffffffffffffffffffffffff16905090565b60006113b261137e565b73ffffffffffffffffffffffffffffffffffffffff163373ffffffffffffffffffffffffffffffffffffffff1614611435576040517f08c379a0000000000000000000000000000000000000000000000000000000008152600401808060200182810382526024815260200180612fcd6024913960400191505060405180910390fd5b61143e82611fcb565b9050919050565b60006060808b8b8b8b8b8b8b61145961137e565b30604051602001808a73ffffffffffffffffffffffffffffffffffffffff1673ffffffffffffffffffffffffffffffffffffffff1660601b81526014018973ffffffffffffffffffffffffffffffffffffffff1673ffffffffffffffffffffffffffffffffffffffff1660601b815260140188805190602001908083835b602083106114fa57805182526020820191506020810190506020830392506114d7565b6001836020036101000a0380198251168184511680821785525050505050509050018781526020018681526020018581526020018481526020018373ffffffffffffffffffffffffffffffffffffffff1673ffffffffffffffffffffffffffffffffffffffff1660601b81526014018273ffffffffffffffffffffffffffffffffffffffff1673ffffffffffffffffffffffffffffffffffffffff1660601b815260140199505050505050505050506040516020818303038152906040529050609760009054906101000a900473ffffffffffffffffffffffffffffffffffffffff1673ffffffffffffffffffffffffffffffffffffffff16611615866116078480519060200120611fd2565b61202a90919063ffffffff16565b73ffffffffffffffffffffffffffffffffffffffff161415611643576116396122c5565b925092505061165d565b61165760008081111561165257fe5b6122e9565b92509250505b995099975050505050505050565b60006116958260c9600086815260200190815260200160002060000161230a90919063ffffffff16565b905092915050565b60006116c78260c9600086815260200190815260200160002060000161232490919063ffffffff16565b905092915050565b600060019054906101000a900460ff16806116ee57506116ed612354565b5b8061170557506000809054906101000a900460ff16155b61175a576040517f08c379a000000000000000000000000000000000000000000000000000000000815260040180806020018281038252602e815260200180612f66602e913960400191505060405180910390fd5b60008060019054906101000a900460ff1615905080156117aa576001600060016101000a81548160ff02191690831515021790555060016000806101000a81548160ff0219169083151502179055505b6117b76000801b8361236b565b6117f660405180807f4d414e414745525f524f4c450000000000000000000000000000000000000000815250600c01905060405180910390208361236b565b6117ff83612379565b80156118205760008060016101000a81548160ff0219169083151502179055505b505050565b606060fb826040518082805190602001908083835b6020831061185d578051825260208201915060208101905060208303925061183a565b6001836020036101000a03801982511681845116808217855250505050505090500191505090815260200160405180910390206000018054600181600116156101000203166002900480601f0160208091040260200160405190810160405280929190818152602001828054600181600116156101000203166002900480156119275780601f106118fc57610100808354040283529160200191611927565b820191906000526020600020905b81548152906001019060200180831161190a57829003601f168201915b50505050509050919050565b6000801b81565b60606040518060400160405280600581526020017f312e302e30000000000000000000000000000000000000000000000000000000815250905090565b600061199760c96000848152602001908152602001600020600001612492565b9050919050565b6119c560c96000848152602001908152602001600020600201546119c0611dd0565b61169d565b611a1a576040517f08c379a0000000000000000000000000000000000000000000000000000000008152600401808060200182810382526030815260200180612f146030913960400191505060405180910390fd5b611a248282611e73565b5050565b611a3061137e565b73ffffffffffffffffffffffffffffffffffffffff163373ffffffffffffffffffffffffffffffffffffffff1614611ab3576040517f08c379a0000000000000000000000000000000000000000000000000000000008152600401808060200182810382526024815260200180612fcd6024913960400191505060405180910390fd5b611abf848484846124a7565b50505050565b6000611acf61137e565b73ffffffffffffffffffffffffffffffffffffffff1663aa67c91934306040518363ffffffff1660e01b8152600401808273ffffffffffffffffffffffffffffffffffffffff1673ffffffffffffffffffffffffffffffffffffffff1681526020019150506000604051808303818588803b158015611b4d57600080fd5b505af1158015611b61573d6000803e3d6000fd5b50505050506001905090565b600060fb826040518082805190602001908083835b60208310611ba55780518252602082019150602081019050602083039250611b82565b6001836020036101000a038019825116818451168082178552505050505050905001915050908152602001604051809103902060010160009054906101000a900473ffffffffffffffffffffffffffffffffffffffff169050919050565b606080600467ffffffffffffffff81118015611c1e57600080fd5b506040519080825280601f01601f191660200182016040528015611c515781602001600182028036833780820191505090505b50905060008090505b6004811015611cc757611c6b611ccf565b8181518110611c7657fe5b602001015160f81c60f81b828281518110611c8d57fe5b60200101907effffffffffffffffffffffffffffffffffffffffffffffffffffffffffffff1916908160001a905350806001019050611c5a565b508091505090565b6060611cd961137e565b73ffffffffffffffffffffffffffffffffffffffff163373ffffffffffffffffffffffffffffffffffffffff1614611dc257611d136124ad565b611d1b611dd0565b6040516020018083805190602001908083835b60208310611d515780518252602082019150602081019050602083039250611d2e565b6001836020036101000a0380198251168184511680821785525050505050509050018273ffffffffffffffffffffffffffffffffffffffff1673ffffffffffffffffffffffffffffffffffffffff1660601b8152601401925050506040516020818303038152906040529050611dcd565b611dca61255f565b90505b90565b6000611dda6125ac565b905090565b611e078160c9600085815260200190815260200160002060000161261990919063ffffffff16565b15611e6f57611e14611dd0565b73ffffffffffffffffffffffffffffffffffffffff168173ffffffffffffffffffffffffffffffffffffffff16837f2f8788117e7eff1d82e926ec794901d17c78024a50270940304540a733656f0d60405160405180910390a45b5050565b611e9b8160c9600085815260200190815260200160002060000161264990919063ffffffff16565b15611f0357611ea8611dd0565b73ffffffffffffffffffffffffffffffffffffffff168173ffffffffffffffffffffffffffffffffffffffff16837ff6391f5c32d9c69d2a47ea670b442974b53935d1edc7fd64eb21e047a839171b60405160405180910390a45b5050565b606560009054906101000a900473ffffffffffffffffffffffffffffffffffffffff1673ffffffffffffffffffffffffffffffffffffffff1662f714ce83836040518363ffffffff1660e01b8152600401808381526020018273ffffffffffffffffffffffffffffffffffffffff1673ffffffffffffffffffffffffffffffffffffffff16815260200192505050600060405180830381600087803b158015611faf57600080fd5b505af1158015611fc3573d6000803e3d6000fd5b505050505050565b6000919050565b60008160405160200180807f19457468657265756d205369676e6564204d6573736167653a0a333200000000815250601c01828152602001915050604051602081830303815290604052805190602001209050919050565b600060418251146120a3576040517f08c379a000000000000000000000000000000000000000000000000000000000815260040180806020018281038252601f8152602001807f45434453413a20696e76616c6964207369676e6174757265206c656e6774680081525060200191505060405180910390fd5b60008060006020850151925060408501519150606085015160001a90507f7fffffffffffffffffffffffffffffff5d576e7357a4501ddfe92f46681b20a08260001c111561213c576040517f08c379a0000000000000000000000000000000000000000000000000000000008152600401808060200182810382526022815260200180612ef26022913960400191505060405180910390fd5b601b8160ff16141580156121545750601c8160ff1614155b156121aa576040517f08c379a0000000000000000000000000000000000000000000000000000000008152600401808060200182810382526022815260200180612f446022913960400191505060405180910390fd5b600060018783868660405160008152602001604052604051808581526020018460ff1660ff1681526020018381526020018281526020019450505050506020604051602081039080840390855afa158015612209573d6000803e3d6000fd5b505050602060405103519050600073ffffffffffffffffffffffffffffffffffffffff168173ffffffffffffffffffffffffffffffffffffffff1614156122b8576040517f08c379a00000000000000000000000000000000000000000000000000000000081526004018080602001828103825260188152602001807f45434453413a20696e76616c6964207369676e6174757265000000000000000081525060200191505060405180910390fd5b8094505050505092915050565b600060606122e160405180602001604052806000815250612679565b915091509091565b6000606082600b016040518060200160405280600081525091509150915091565b60006123198360000183612689565b60001c905092915050565b600061234c836000018373ffffffffffffffffffffffffffffffffffffffff1660001b61270c565b905092915050565b6000803090506000813b9050600081149250505090565b6123758282611ddf565b5050565b600060019054906101000a900460ff16806123985750612397612354565b5b806123af57506000809054906101000a900460ff16155b612404576040517f08c379a000000000000000000000000000000000000000000000000000000000815260040180806020018281038252602e815260200180612f66602e913960400191505060405180910390fd5b60008060019054906101000a900460ff161590508015612454576001600060016101000a81548160ff02191690831515021790555060016000806101000a81548160ff0219169083151502179055505b61245c61272f565b61246461282e565b61246d82612982565b801561248e5760008060016101000a81548160ff0219169083151502179055505b5050565b60006124a082600001612b49565b9050919050565b50505050565b6060606560009054906101000a900473ffffffffffffffffffffffffffffffffffffffff1673ffffffffffffffffffffffffffffffffffffffff163373ffffffffffffffffffffffffffffffffffffffff1614612551576000368080601f016020809104026020016040519081016040528093929190818152602001838380828437600081840152601f19601f82011690508083019250505050505050905061255c565b612559612b5a565b90505b90565b60606000368080601f016020809104026020016040519081016040528093929190818152602001838380828437600081840152601f19601f82011690508083019250505050505050905090565b6000606560009054906101000a900473ffffffffffffffffffffffffffffffffffffffff1673ffffffffffffffffffffffffffffffffffffffff163373ffffffffffffffffffffffffffffffffffffffff161461260b57339050612616565b612613612c2b565b90505b90565b6000612641836000018373ffffffffffffffffffffffffffffffffffffffff1660001b612ca3565b905092915050565b6000612671836000018373ffffffffffffffffffffffffffffffffffffffff1660001b612d13565b905092915050565b6000606060008391509150915091565b6000818360000180549050116126ea576040517f08c379a0000000000000000000000000000000000000000000000000000000008152600401808060200182810382526022815260200180612ea16022913960400191505060405180910390fd5b8260000182815481106126f957fe5b9060005260206000200154905092915050565b600080836001016000848152602001908152602001600020541415905092915050565b600060019054906101000a900460ff168061274e575061274d612354565b5b8061276557506000809054906101000a900460ff16155b6127ba576040517f08c379a000000000000000000000000000000000000000000000000000000000815260040180806020018281038252602e815260200180612f66602e913960400191505060405180910390fd5b60008060019054906101000a900460ff16159050801561280a576001600060016101000a81548160ff02191690831515021790555060016000806101000a81548160ff0219169083151502179055505b801561282b5760008060016101000a81548160ff0219169083151502179055505b50565b600060019054906101000a900460ff168061284d575061284c612354565b5b8061286457506000809054906101000a900460ff16155b6128b9576040517f08c379a000000000000000000000000000000000000000000000000000000000815260040180806020018281038252602e815260200180612f66602e913960400191505060405180910390fd5b60008060019054906101000a900460ff161590508015612909576001600060016101000a81548160ff02191690831515021790555060016000806101000a81548160ff0219169083151502179055505b73d216153c06e857cd7f72665e0af1d7d82172f494606560006101000a81548173ffffffffffffffffffffffffffffffffffffffff021916908373ffffffffffffffffffffffffffffffffffffffff160217905550801561297f5760008060016101000a81548160ff0219169083151502179055505b50565b600060019054906101000a900460ff16806129a157506129a0612354565b5b806129b857506000809054906101000a900460ff16155b612a0d576040517f08c379a000000000000000000000000000000000000000000000000000000000815260040180806020018281038252602e815260200180612f66602e913960400191505060405180910390fd5b60008060019054906101000a900460ff161590508015612a5d576001600060016101000a81548160ff02191690831515021790555060016000806101000a81548160ff0219169083151502179055505b600073ffffffffffffffffffffffffffffffffffffffff168273ffffffffffffffffffffffffffffffffffffffff161415612ae3576040517f08c379a0000000000000000000000000000000000000000000000000000000008152600401808060200182810382526039815260200180612f946039913960400191505060405180910390fd5b81609760006101000a81548173ffffffffffffffffffffffffffffffffffffffff021916908373ffffffffffffffffffffffffffffffffffffffff1602179055508015612b455760008060016101000a81548160ff0219169083151502179055505b5050565b600081600001805490509050919050565b606060006014600036905003905060608167ffffffffffffffff81118015612b8157600080fd5b506040519080825280601f01601f191660200182016040528015612bb45781602001600182028036833780820191505090505b50905060008090505b82811015612c225760003682818110612bd257fe5b9050013560f81c60f81b828281518110612be857fe5b60200101907effffffffffffffffffffffffffffffffffffffffffffffffffffffffffffff1916908160001a905350806001019050612bbd565b50809250505090565b600060606000368080601f016020809104026020016040519081016040528093929190818152602001838380828437600081840152601f19601f820116905080830192505050505050509050600080369050905073ffffffffffffffffffffffffffffffffffffffff81830151169250829250505090565b6000612caf838361270c565b612d08578260000182908060018154018082558091505060019003906000526020600020016000909190919091505582600001805490508360010160008481526020019081526020016000208190555060019050612d0d565b600090505b92915050565b60008083600101600084815260200190815260200160002054905060008114612def5760006001820390506000600186600001805490500390506000866000018281548110612d5e57fe5b9060005260206000200154905080876000018481548110612d7b57fe5b9060005260206000200181905550600183018760010160008381526020019081526020016000208190555086600001805480612db357fe5b60019003818190600052602060002001600090559055866001016000878152602001908152602001600020600090556001945050505050612df5565b60009150505b92915050565b828054600181600116156101000203166002900490600052602060002090601f016020900481019282601f10612e3c57805160ff1916838001178555612e6a565b82800160010185558215612e6a579182015b82811115612e69578251825591602001919060010190612e4e565b5b509050612e779190612e7b565b5090565b612e9d91905b80821115612e99576000816000905550600101612e81565b5090565b9056fe456e756d657261626c655365743a20696e646578206f7574206f6620626f756e6473416363657373436f6e74726f6c3a2073656e646572206d75737420626520616e2061646d696e20746f206772616e7445434453413a20696e76616c6964207369676e6174757265202773272076616c7565416363657373436f6e74726f6c3a2073656e646572206d75737420626520616e2061646d696e20746f207265766f6b6545434453413a20696e76616c6964207369676e6174757265202776272076616c7565436f6e747261637420696e7374616e63652068617320616c7265616479206265656e20696e697469616c697a656447534e526563697069656e745369676e61747572653a2074727573746564207369676e657220697320746865207a65726f206164647265737347534e526563697069656e743a2063616c6c6572206973206e6f742052656c6179487562416363657373436f6e74726f6c3a2063616e206f6e6c792072656e6f756e636520726f6c657320666f722073656c66a2646970667358221220437af1aaedc81781ac3b0c84c53c6c7bab30c08431d552fc15b5fe52ac16ff9764736f6c634300060b0033",
  "compiler": {
    "name": "solc",
    "version": "0.6.11+commit.5ef660b1.Emscripten.clang",
    "optimizer": {
      "enabled": false,
      "runs": 200
    },
    "evmVersion": "petersburg"
  }
}